:1000000012C021C020C020C01EC01DC01CC01BC00B
:100010001AC019C018C017C016C015C014C013C02C
:1000200012C011C010C011241FBECFE5D4E0DEBF46
:10003000CDBF10E0A0E6B0E001C01D92A236B1072E
:10004000E1F741D044C0DCCF1F920F920FB60F9260
:1000500011248F9380916000833310F4C4981AC0E8
:1000600080916000853618F01092600013C0C49A29
:1000700080916100813011F4C49807C080916100C3
:10008000823018F0C49A10926100809161008F5FF5
:1000900080936100809160008F5F809360008F91FA
:1000A0000F900FBE0F901F90189585B5896185BD83
:1000B00089B7806889BF88B7806888BFBB9ABC9AB7
:1000C000B89AC09A08958FEF84BB85BB0895F894C1
:0200D000FFCF60
:00000001FF
