:1000000012C07AC020C01FC01EC01DC01CC01BC0B3
:100010001AC083C018C017C016C015C014C013C0C2
:1000200012C011C010C011241FBECFE5D4E0DEBF46
:10003000CDBF10E0A0E6B0E001C01D92A136B1072F
:10004000E1F782D0B1C0DCCF82B3877082BB089564
:10005000FBDF939A80ED97E028EC30E0F9013197CF
:10006000F1F70197D9F7F0DF949A80ED97E028EC4B
:1000700030E0F9013197F1F70197D9F7E5DF959A6B
:1000800080ED97E028EC30E0F9013197F1F7019726
:10009000D9F7DADF969A80ED97E028EC30E0F901A5
:1000A0003197F1F70197D9F7CFDF979A80ED97E075
:1000B00028EC30E0F9013197F1F70197D9F7C4DF67
:1000C000939A08958FEF81BB8A9887B38C6387BB1F
:1000D00081B3886F81BBBCDFA09A089583B7846029
:1000E00083BF89B7816089BF089585B7816085BF67
:1000F0008BB780648BBF08951F920F920FB60F923B
:1001000011248F93809160008F5F809360008F91A6
:100110000F900FBE0F901F9018951F920F920FB661
:100120000F9211248F9380916000882319F4A89A6C
:10013000909802C0A898909A109260008F910F90AA
:100140000FBE0F901F901895BDDFC8DFCEDF81E096
:10015000809360007894B4E040ED57E088EC90E044
:10016000A0E178E060E2B8BB9A01FC013197F1F7B9
:1001700021503040D1F7A8BB9A01FC013197F1F72B
:1001800021503040D1F778BB9A01FC013197F1F74B
:1001900021503040D1F768BB9A01FC013197F1F74B
:0C01A00021503040D1F7DFCFF894FFCFA2
:00000001FF
